:100000004FC069C022C267C066C065C064C063C01B
:1000100062C061C060C05FC077C25DC05CC0076382
:100020004236B79BD8A71A39685618AEBAAB558C6A
:100030001D3CB7CC5763BD6DEDFD753EF6177231B3
:10004000BF000000803F08000000BE922449123E1D
:10005000ABAAAA2ABECDCCCC4C3E00000080BEABE1
:10006000AAAAAA3E00000000BF000000803F0000D6
:10007000000000084178D3BB4387D1133D190E3CE3
:10008000C3BD4282AD2B3E68EC8276BED98FE1A91A
:100090003E4C80EFFFBE01C4FF7F3F000000000028
:1000A00011241FBECFE5D1E0DEBFCDBF10E0A0E63A
:1000B000B0E0E6E8FEE002C005900D92A236B1077E
:1000C000D9F710E0A2E6B0E001C01D92AD36B1074D
:1000D000E1F748D2D6C694CFA0E0B0E0E1E7F0E087
:1000E00077C61C018D899E89AF89B88D742E6624D0
:1000F00055244424F1014081518162817381442A55
:10010000552A662A772AF4E1000F111F221F331F98
:10011000FA95D1F7402A512A622A732A1AE0CC0CA8
:10012000DD1CEE1CFF1C1A95D1F74C285D286E28AB
:100130007F2806E0880C991CAA1CBB1C0A95D1F7E5
:10014000482859286A287B2824E0880F991FAA1F6D
:10015000BB1F2A95D1F7482A592A6A2A7B2AB3015C
:10016000A201F8E0E0E08A019B010F70112722272D
:100170003327E02784E076956795579547958A95CC
:10018000D1F7F15081F74E2AF1014082518262820B
:100190007382E2E139C60F931F93342F2227112770
:1001A0000027FC0140815181628173817727042BF4
:1001B000152B262B372B00831183228333831F912A
:1001C0000F9108950F931F93E4E1440F551F661F8D
:1001D000771FEA95D1F7FC010081118122813381DB
:1001E0002F70402B512B622B732B408351836283E2
:1001F00073831F910F9108950F931F93FAE0440F9B
:10020000551F661F771FFA95D1F7FC0100811181F8
:10021000228133811370207F402B512B622B732B53
:1002200040835183628373831F910F9108959C01D2
:1002300006C081E28A95F1F70000215031092115AD
:100240003105B9F7089580936C0097B321E030E051
:10025000082E01C0220F0A94EAF7922B97BB08954B
:10026000F2DF84E090E090936700809366008CE07A
:1002700090E090936900809368008CE790E0909301
:100280006B0080936A000895CF93DF9328B3C1E099
:10029000D0E0CE0100906C0002C0880F991F0A9434
:1002A000E2F7282B28BB8091660090916700BFDFA2
:1002B00088B300906C0002C0CC0FDD1F0A94E2F7F7
:1002C000C095C823C8BB80916A0090916B00AFDFD6
:1002D000DF91CF910895CF93DF9328B3C1E0D0E0B1
:1002E000CE0100906C0002C0880F991F0A94E2F7BB
:1002F000282B28BB809166009091670098DF88B317
:1003000000906C0002C0CC0FDD1F0A94E2F7C0958C
:10031000C823C8BB809168009091690088DFDF9195
:10032000CF910895CF93DF9328B3C1E0D0E0CE0101
:1003300000906C0002C0880F991F0A94E2F7282BE6
:1003400028BB809168009091690071DF88B30090AC
:100350006C0002C0CC0FDD1F0A94E2F7C095C823E1
:10036000C8BB809166009091670061DFDF91CF91FB
:100370000895A0E0B0E0EEEBF1E031C5982EB62E86
:10038000A72ECAE0DC2E19C0E990B8E0CB2E01E020
:1003900010E0F12C98012E213F21232B11F49BDF3B
:1003A00001C0C0DF000F111FCA94A1F78C2F8B1959
:1003B000891550F369DFDA9419F0CB2DDA2DF6CFD9
:1003C000CDB7DEB7EBE027C5A4E0B0E0E9EEF1E0A1
:1003D0000FC569837A838B839C83BE016F5F7F4FD8
:1003E00084E0C7DF2496E2E01FC5F8949C018A30C0
:1003F000910514F029E030E0C90187709927283071
:1004000031050CF08062806194B7977F94BFF894B7
:1004100091B5986191BD81BD81B5806481BD7894AD
:100420000895379885B7877E806185BF85B78062DC
:1004300085BF85B7806285BF889585B78F7D85BF6D
:1004400085B78F7D85BF379A08951F920F920FB69B
:100450000F9211242F933F934F935F938F939F930A
:10046000AF93BF93EF93FF93809161008F5F809371
:100470006100843010F01092610040E081E090E073
:1004800024C058B39C0100906C0002C0220F331F9F
:100490000A94E2F7522B58BBE7EAF1E63197F1F7FD
:1004A00000C0000058B39C0100906C0002C0220FF5
:1004B000331F0A94E2F72095252328BBE7EAF1E6EB
:1004C0003197F1F700C000004F5F209161002417C1
:1004D000C0F68EEF9FEFAFEFBFEF80936200909377
:1004E0006300A0936400B0936500FF91EF91BF910A
:1004F000AF919F918F915F914F913F912F910F906D
:100500000FBE0F901F9018951F920F920FB60F926B
:1005100011248F939F93AF93BF9385B78F7D85BF32
:1005200081E0809360008091620090916300A091CF
:100530006400B09165000196A11DB11D8093620019
:1005400090936300A0936400B093650085B78062C8
:1005500085BFBF91AF919F918F910F900FBE0F906C
:100560001F901895A4E0B0E0E7EBF2E033C483E01D
:1005700077DE8BB780628BBFA99A88E10FB6F894BB
:1005800081BD11BC0FBE89E090E02FDF86B1836092
:1005900086B987B187B93D9A379A78948FE5482E06
:1005A00084ED582E80E1682E712C6091610070E01E
:1005B00080E090E0A3D09B01AC0160E070E080E2BD
:1005C00091E468D18B014C016091620070916300ED
:1005D000809164009091650091D06B017C0120E0D6
:1005E00030E040EE50E4B801882D992DE8D09B0111
:1005F000AC01C701B6017ED087FF02C012DFD5CFA4
:1006000010926200109263001092640010926500D4
:1006100087B1837F87B9399A369A3699FECF84B1EC
:10062000C5B0D12CCC0CDD1CCC0CDD1C8295869584
:1006300086958370C82AEE24D7FCE094FE2C399866
:1006400087B18C6087B98AE090E0F1DD369A3699FF
:10065000FECF84B125B130E0220F331F220F331FAC
:100660008295869586958370282B40E050E0C301E3
:10067000B20193D3C901803D27E0920760F0843C2A
:1006800029E0920760F0883B9B4070F482E090E0A4
:10069000A0E0B0E00DC080E090E0DC0109C081E0A6
:1006A00090E0A0E0B0E004C083E090E0A0E0B0E023
:1006B00019821A821B821C8280906100912CA12CCD
:1006C000B12CBF93AF939F938F9301E010E020E094
:1006D00030E04BE750E060E070E0CE010196FCDCDA
:1006E00069817A818B819C816FDE0F900F900F90D2
:1006F0000F905BCF40D008F481E00895E89409C0E2
:1007000097FB3EF490958095709561957F4F8F4F44
:100710009F4F9923A9F0F92F96E9BB279395F6955A
:10072000879577956795B795F111F8CFFAF4BB0FD8
:1007300011F460FF1BC06F5F7F4F8F4F9F4F16C03C
:10074000882311F096E911C0772321F09EE8872FC6
:10075000762F05C0662371F096E8862F70E060E082
:100760002AF09A95660F771F881FDAF7880F9695FB
:10077000879597F90895990F0008550FAA0BE0E89F
:10078000FEEF16161706E807F907C0F01216130653
:10079000E407F50798F0621B730B840B950B39F493
:1007A0000A2661F0232B242B252B21F408950A26F9
:1007B00009F4A140A6958FEF811D811D08950AD0EF
:1007C00022C113D128F018D118F0952309F0DFC009
:1007D000E4C04DC129D1A8F39923D9F35523C9F316
:1007E000950F50E0551FAA27EE27FF27BB270024AF
:1007F0000894679520F4E20FF31FB41F0A1E220F1E
:10080000331F441FAA1F6695A9F7779530F4F30F9D
:10081000B41F0A1E121E08F46395330F441FAA1F4B
:10082000221F769599F7879520F4B40F0A1E121EA1
:10083000631F440FAA1F221F331F8695A9F7862F17
:10084000712D602D11249F5750408AF0E1F08823CC
:100850004AF0EE0FFF1FBB1F661F771F881F9150C6
:100860005040A9F79E3F510570F091C000C15F3F15
:10087000ECF3983EDCF3869577956795B795F795F9
:10088000E7959F5FC1F7FE2B880F911D9695879581
:1008900097F90895FA01EE0FFF1F309621053105F3
:1008A00099F16115710561F48038BFE39B0749F147
:1008B00068949038810561F08038BFEF9B0741F064
:1008C000992342F5FF3FE1053105210511F1E89437
:1008D0000894E795D901AA2329F4AB2FBE2FF85F1E
:1008E000D0F310C0FF5F70F4A695E0F7F73950F031
:1008F00019F0FF3A38F49F779F930CD00F9007FCC4
:10090000905808953EF049C060E070E080E89FE3B1
:1009100008954FE79F775F934F933F932F93EFD0C7
:100920002F913F914F915F914ADF05C019F40EF06E
:100930002EC09CC032C080D0C8F39638C0F707F8EC
:100940000F92E8942BE33AEA48EB5FE745DF0F921A
:100950000F920F924DB75EB70F9211D1EEE1F0E01A
:100960001FD04F915F91EF91FF91E595EE1FFF1F13
:1009700049F0FE57E0684427EE0F441FFA95E1F76F
:100980004195550B83D00F9007FE77C0089597F9D6
:100990009F6780E870E060E008959FEF80EC089525
:1009A000DF93CF931F930F93FF92EF92DF927B0120
:1009B0008C01689405C0DA2EEF010CDFFE01E8948B
:1009C000A5912591359145915591AEF3EF011CD13B
:1009D000FE019701A801DA9479F7DF90EF90FF907C
:1009E0000F911F91CF91DF91089500240A9416165C
:1009F000170618060906089500240A94121613060D
:100A0000140605060895092E0394000C11F488239A
:100A100052F0BB0F40F4BF2B11F460FF04C06F5FB6
:100A20007F4F8F4F9F4F089557FD9058440F551F8C
:100A300059F05F3F71F04795880F97FB991F61F060
:100A40009F3F79F087950895121613061406551FD7
:100A5000F2CF4695F1DF08C0161617061806991F43
:100A6000F1CF86957105610508940895E894BB2738
:100A700066277727CB0197F908959B01AC0160E0C9
:100A800070E080E89FE313C182CF79C1D5DFE8F33E
:100A90009923D9F3940F511DBBF39150504094F01A
:100AA00059F0882332F0660F771F881F915050400D
:100AB000C1F79E3F510544F7880F911D9695879584
:100AC00097F908955F3FACF0983E9CF0BB27869560
:100AD00077956795B79508F4B1609395C1F7BB0F0B
:100AE00058F711F460FFE8CF6F5F7F4F8F4F9F4F34
:100AF000E3CFBDCF0EF043C150CF689448CF9CDF09
:100B0000C8F39923D1F3C6F3DF93CF931F930F93C9
:100B1000FF92C92FDD2788232AF02197660F771FC0
:100B2000881FDAF720E030E040E85FEB9FE3883988
:100B300020F0803E30F021968F7755D0E6E4F0E04B
:100B400003C051D0E3E7F0E02BDF8B01BE01EC01E5
:100B5000FB2E6F5771097595771F880B990BD0DDA8
:100B600028E132E741E35FE335DEAF2D9801AE01C6
:100B7000FF900F911F91CF91DF9146D044CFFA01A2
:100B8000DC01AA0FBB1F9B01AC01BF5728F4222731
:100B90003327442750781FC0B75188F4AB2F002467
:100BA000469537952795011CA395D2F3002069F04F
:100BB000220F331F441FB395DAF30DD013C06130F9
:100BC0007105A0E88A07B94630F49B01AC0166279D
:100BD000772788279078309621F0208331834283CD
:100BE000538308955058BB27AA270ED00CCFFDDEA3
:100BF00030F002DF20F031F49F3F11F41EF4CDCE2F
:100C00000EF4E095E7FBC3CEE92F0EDF80F3BA17B1
:100C1000620773078407950718F071F49EF526CFD5
:100C20000EF4E0950B2EBA2FA02D0B01B901900107
:100C30000C01CA01A0011124FF27591B99F0593F4B
:100C400050F4503E68F11A16F040A22F232F342F93
:100C50004427585FF3CF469537952795A795F040E1
:100C60005395C9F77EF41F16BA0B620B730B840BF6
:100C7000BAF09150A1F0FF0FBB1F661F771F881FAE
:100C8000C2F70EC0BA0F621F731F841F48F4879506
:100C900077956795B795F7959E3F08F0B3CF9395F5
:100CA000880F08F09927EE0F9795879508950CD037
:100CB000AACEA2DE40F099DE30F021F45F3F19F0B9
:100CC00066CE5111D4CE69CEAFDE98F39923C9F325
:100CD0005523B1F3951B550BBB27AA276217730742
:100CE000840738F09F5F5F4F220F331F441FAA1FF6
:100CF000A9F333D00E2E3AF0E0E830D091505040B6
:100D0000E695001CCAF729D0FE2F27D0660F771F63
:100D1000881FBB1F261737074807AB07B0E809F045
:100D2000BB0B802DBF01FF2793585F4F2AF09E3FDA
:100D3000510568F02CCE9BCE5F3FECF3983EDCF380
:100D4000869577956795B795F7959F5FC9F7880F53
:100D5000911D9695879597F90895E1E0660F771FA5
:100D6000881FBB1F621773078407BA0720F0621B36
:100D7000730B840BBA0BEE1F88F7E09508959F3F25
:100D800031F0915020F4879577956795B795880F46
:100D9000911D9695879597F90895052E97FB16F462
:100DA000009406D057FD0CD04AD007FC09D07EF441
:100DB00090958095709561957F4F8F4F9F4F0895C7
:100DC00050954095309521953F4F4F4F5F4F089577
:100DD0002F923F924F925F926F927F928F929F924B
:100DE000AF92BF92CF92DF92EF92FF920F931F9339
:100DF000CF93DF93CDB7DEB7CA1BDB0B0FB6F894EA
:100E0000DEBF0FBECDBF09942A88398848885F8429
:100E10006E847D848C849B84AA84B984C884DF809A
:100E2000EE80FD800C811B81AA81B981CE0FD11D7E
:100E30000FB6F894DEBF0FBECDBFED010895A1E25D
:100E40001A2EAA1BBB1BFD010DC0AA1FBB1FEE1F44
:100E5000FF1FA217B307E407F50720F0A21BB30B8F
:100E6000E40BF50B661F771F881F991F1A9469F70B
:100E700060957095809590959B01AC01BD01CF0167
:060E80000895F894FFCF75
:020E8600010168
:00000001FF
